:100000000C942A000C9434000C9434000C943400AA
:100010000C9434000C9434000C9434000C94340090
:100020000C9434000C9434000C9434000C94340080
:100030000C9434000C9434000C9434000C94340070
:100040000C9434000C9434000C9434000C94340060
:100050000C94340011241FBECFE5D8E0DEBFCDBF25
:100060000E9436000C944C000C94000087B3816011
:1000700087BB87B38D7F87BB88B3826088BB86B31D
:10008000811103C088B3816088BB88B38823B9F32A
:0C00900088B38E7F88BBF3CFF894FFCFBD
:00000001FF
